:0300000002007A81
:10001B00D57F1DC0E0C000C082C083757F07E56936
:10002B0004540FF56912035DD083D082D000D0E069
:01003B003292
:10006300C0E0C000C082C0831202CC1202A5D083BC
:10007300D082D000D0E03275817F85148D85958B39
:1000830043A808D28E757F077594FF7592FF759606
:10009300FF75B4FF1202D675D6FE75D700438E10D6
:1000A30043AF04757A3F757B1C757C3F756A017598
:1000B3006B02756C03756D04756E05756F0675704F
:1000C3000775710075720175730275740375750494
:1000D3007576057577067578077579007569007506
:1000E300680212035DD2AF800020690B206A1320DF
:1000F3006B1B206C2680F2C269E56814540FF56807
:1001030080E7C26AE56804540FF56880DCC26BE5DA
:1001130068246AF8E6045407F680CEC26CE56824C6
:100123006AF8E6145407F680C0900132232373D291
:02013300A62202
:03013600D2C5220D
:03013A00D284224A
:03013E00D2A72223
:03014200D2802246
:03014600D283223F
:03014A00D281223D
:03014E00D2822238
:03015200D2852231
:03015600D287222B
:03015A00D293221B
:03015E00D2862224
:03016200D2902216
:03016600D2922210
:03016A00D291220D
:0C016E00D29622900177232373C2A622B0
:03017B00C2C522D8
:03017F00C2842215
:03018300C2A722EE
:03018700C2802211
:03018B00C283220A
:03018F00C2812208
:03019300C2822203
:03019700C28522FC
:03019B00C28722F6
:03019F00C29322E6
:0301A300C28622EF
:0301A700C29022E1
:0301AB00C29222DB
:0301AF00C29122D8
:0C01B300C296229001BC232373C2A42238
:0301C000C2A022B8
:0301C400C2C42290
:0301C800C2A122AF
:0301CC00C29422B8
:0301D000C2A222A6
:0301D400C2C12283
:0C01D800C295229001E1232373D2A422DF
:0301E500D2A02283
:0301E900D2C4225B
:0301ED00D2A1227A
:0301F100D2942283
:0301F500D2A22271
:0301F900D2C1224E
:1001FD00D29522D2A4D2A0D2C4D2A1D294D2A2D2CC
:10020D00C1D29522C2A6C2C5C284C2A7C280C28372
:10021D00C281C282C285C287C293C286C290C29277
:0B022D00C291C2962290023823237376
:03023800D2C1220E
:03023C00D2A42227
:03024000D2A12226
:03024400D2A02223
:03024800D2C422FB
:03024C00D2A22219
:03025000D2942223
:09025400D2952290025D23237370
:03025D00C2C122F9
:03026100C2A42212
:03026500C2A12211
:03026900C2A0220E
:03026D00C2C422E6
:03027100C2A22204
:03027500C294220E
:10027900C29522C2C1C2A4C2A1C2A0C2C4C2A2C2A2
:1002890094C29522D2A3D2A5D2C22290029A232344
:0102990073F1
:03029A00C2A322DA
:03029E00C2A522D4
:1002A200C2C222E430B702D2E020B202D2E120B6CA
:1002B20002D2E220B302D2E320B002D2E4F8E52E69
:1002C200F458422DE8F52E522D22C07DC07E22D058
:1002D2007ED07D22511151D1756701D56705B27863
:1002E20075670A12028D12027CE4FF120294747A7C
:1002F2002FF88606E4FDEE13FE5004ED12023212D0
:1003020002D1ED120257ED04B408EA12028DEF0495
:10031200B403D7120200E4FDB5680330781E12015F
:100322002CED246AF8E65407B400051202D1800CC1
:1003320014FE1201B61202D1EE1201DBED120171AE
:10034200ED04B410D2C295E569540FFD12012C12CE
:1003520002D1ED120171D2951202DD746A2569F89B
:10036200E65407B400028006142424F88008C28CE4
:10037200538FFED2B522900398E893F58C9004181F
:10038200E893F58A438F01D28CB82B04438E8022E6
:1003920050FA538E7F2202101E2A36414C56606953
:1003A200717981888F959BA0A6ABB0B4B8BCC0C44C
:1003B200C7CACDD0D3D5D8DADCDEE0E2E3E5E6E8A1
:1003C200E902101D2A36414C566068717981888E87
:1003D200959BA0A6ABB0B4B8BCC0C4C7CACDD0D39D
:1003E200D5D8DADCDEE0E2E3E5E6E8E9EAECEDEED8
:1003F200EFF0F1F1F2F3F4F4F5F6F6F7F7F8F8F8B6
:10040200F9F9FAFAFAFBFBFBFBFCFCFCFCFCFDFD38
:10041200FDFDFDFDFDFE559202B1AAF7A1B2332BFF
:10042200A2A02A49015855FB51591995D1D09524BA
:1004320080ACAA7E28AD0D4B69684B12C056D53FE1
:10044200940B4CC07370C06D8105FF79790626E06C
:100452003A38E037410280BCBC8313709D9C701B0C
:10046200A001405E5E410AB84ECE388ED001202FE8
:100472002F2105DCA7671CC768009018981082EE30
:1004820054B30E63B400488CCC084177AADA073221
:100492005A80A4C6E6041432483276149502E50264
:0804A200AC95070403020201FE
:00000001FF
