:0300000002007A81
:10001B00D57F20C0E0C000C082C08312020FE5690B
:10002B0004540FF569120467120499D083D082D05F
:04003B0000D0E032DF
:10006300C0E0C000C082C0831203CC120391D083CE
:10007300D082D000D0E03275817F1201F77594FFF2
:100083007592FF7596FF75B4FF1203D675D6FE758C
:10009300D700438E1043AF04120462755C2CC27AFE
:1000A300756A01756B02756C03756D04756E057564
:1000B3006F0675700775710075720175730275743B
:1000C3000375750475760575770675780775790078
:1000D300756900756802120499D2AF800053680FE6
:1000E300C279C26820690E206A16206B1E206C2913
:1000F30020683480EFC269E56814540FF56880DD29
:10010300C26AE56804540FF56880D2C26BE56824BF
:100113006AF8E6045407F680C4C26CE568246AF8FA
:10012300E6145407F680B6C268D279436810E55CDA
:1001330075F00C84E5F09005DE93F55E755F007550
:100143006000307A06755F54756044D27B20693A4B
:10015300206A21C27B206C08206B1120684E80EB43
:10016300C26CE55C940740E3F55C80BBC26BE55C65
:1001730024078021C26AE55CC3940340CE307A042D
:10018300940640C7F55CB27A809DC269E55C24039E
:10019300207A022406F8207A05C3947480029475A9
:1001A30050A9885C307B80B27A02012AC26890062B
:1001B3000DE55D93F55E900614E55D93F55F90069E
:1001C3001BE55D93F560206909206A173068F70223
:1001D30000E0C269E55DB4060280EB04F55D12013F
:1001E300FF80C9C26AE55DB4000280DA14F55D12CE
:1001F30001FF80B885045D43A808D28E9005F8E519
:100203005D93F58D9005FFE55D93F58B900606E50F
:0E0213005D93F57F2290021E232373D2A62254
:03022200D2C52220
:03022600D284225D
:03022A00D2A72236
:03022E00D2802259
:03023200D2832252
:03023600D2812250
:03023A00D282224B
:03023E00D2852244
:03024200D287223E
:03024600D293222E
:03024A00D2862237
:03024E00D2902229
:03025200D2922223
:03025600D2912220
:0C025A00D29622900263232373C2A622D6
:03026700C2C522EB
:03026B00C2842228
:03026F00C2A72201
:03027300C2802224
:03027700C283221D
:03027B00C281221B
:03027F00C2822216
:03028300C285220F
:03028700C2872209
:03028B00C29322F9
:03028F00C2862202
:03029300C29022F4
:03029700C29222EE
:03029B00C29122EB
:0C029F00C296229002A8232373C2A4225E
:0302AC00C2A022CB
:0302B000C2C422A3
:0302B400C2A122C2
:0302B800C29422CB
:0302BC00C2A222B9
:0302C000C2C12296
:0C02C400C295229002CD232373D2A42205
:0302D100D2A02296
:0302D500D2C4226E
:0302D900D2A1228D
:0302DD00D2942296
:0302E100D2A22284
:0302E500D2C12261
:1002E900D29522D2A4D2A0D2C4D2A1D294D2A2D2DF
:1002F900C1D29522C2A6C2C5C284C2A7C280C28386
:10030900C281C282C285C287C293C286C290C2928A
:0B031900C291C296229003242323739C
:03032400D2C12221
:03032800D2A4223A
:03032C00D2A12239
:03033000D2A02236
:03033400D2C4220E
:03033800D2A2222C
:03033C00D2942236
:09034000D2952290034923237396
:03034900C2C1220C
:03034D00C2A42225
:03035100C2A12224
:03035500C2A02221
:03035900C2C422F9
:03035D00C2A22217
:03036100C2942221
:10036500C29522C2C1C2A4C2A1C2A0C2C4C2A2C2B5
:1003750094C29522D2A3D2A5D2C22290038623236A
:010385007304
:03038600C2A322ED
:03038A00C2A522E7
:10038E00C2C222E420B702D2E020B202D2E120B6ED
:10039E0002D2E220B302D2E320B002D2E4F84566E4
:1003AE0045654564456385656685646585636488D2
:1003BE0063F8E52EF458422DE8F52E522D22C07D1D
:1003CE00C07E22D07ED07D2251FD71D1756701D5C0
:1003DE006705B27875670A120379120368E4FF1293
:1003EE000380747A307902745E2FF88606E4FDEE8F
:1003FE0013FE5004ED12031E1203D1ED120343ED52
:10040E0004B408EA120379EF04B403D21202ECE446
:10041E00FDB5680330781E120218ED246AF8E65412
:10042E0007B400051203D1800C14FE1202A21203AF
:10043E00D1EE1202C7ED12025DED04B410D2C295D8
:10044E00E569540FFD1202181203D1ED12025DD2AE
:10045E00950203DD756100800AE569B4000280F43F
:10046E00D5621B90048DA861E893F56208E893F5B8
:10047E007A08E893F57B08E893F57C0888612208F2
:10048E003F1C3F08401C40083F1C3F746A2569F81A
:10049E00E65407B400028010149005EA307A0390F7
:1004AE0005F193255CF88008C28C538FFED2B522DD
:1004BE009004DEE893F58C90055EE893F58A438F01
:1004CE0001D28CB82B04438E802250FA538E7F2299
:1004DE0002101E2A36414C566069717981888F95BB
:1004EE009BA0A6ABB0B4B8BCC0C4C7CACDD0D3D540
:1004FE00D8DADCDEE0E2E3E5E6E8E902101D2A36B2
:10050E00414C566068717981888E959BA0A6ABB0E0
:10051E00B4B8BCC0C4C7CACDD0D3D5D8DADCDEE0FF
:10052E00E2E3E5E6E8E9EAECEDEEEFF0F1F1F2F305
:10053E00F4F4F5F6F6F7F7F8F8F8F9F9FAFAFAFB33
:10054E00FBFBFBFCFCFCFCFCFDFDFDFDFDFDFDFED7
:10055E00559202B1AAF7A1B2332BA2A02A49015893
:10056E0055FB51591995D1D0952480ACAA7E28AD52
:10057E000D4B69684B12C056D53F940B4CC073702F
:10058E00C06D8105FF79790626E03A38E0374102E1
:10059E0080BCBC8313709D9C701BA001405E5E41AD
:1005AE000AB84ECE388ED001202F2F2105DCA7673A
:1005BE001CC768009018981082EE54B30E63B400F6
:1005CE00488CCC084177AADA07325A80A4C6E604D2
:1005DE00B95EDE7971F13DBD77F77C390002040515
:1005EE0007090B0001040507080A14083248327681
:1005FE0014959002E502AC95070404030202010073
:10060E004F00000006065BCF667D7F5B663F4F3F67
:04061E003F3F3F3FDC
:00000001FF
