:0300000002007A81
:10001B00D57F20C0E0C000C082C083120189E56992
:10002B0004540FF5691203E1120413D083D082D06C
:04003B0000D0E032DF
:10006300C0E0C000C082C08312034612030BD083DA
:10007300D082D000D0E03275817F1201717594FF78
:100083007592FF7596FF75B4FF12035075D6FE7512
:10009300D700438E1043AF041203DC756A01756BFE
:1000A30002756C03756D04756E05756F06757007C3
:1000B3007571007572017573027574037575047536
:1000C3007605757706757807757900756900756823
:1000D30002120413D2AF800053680FC279C26820A2
:1000E300690E206A16206B1E206C2920683480EF6D
:1000F300C269E56814540FF56880DDC26AE56804D7
:10010300540FF56880D2C26BE568246AF8E604549C
:1001130007F680C4C26CE568246AF8E6145407F64F
:1001230080B6C268D279436810900561E55D93F5A6
:100133005E900568E55D93F55F90056FE55D93F56A
:1001430060206908206A1620688E80F5C269E55D23
:10015300B4060280EC04F55D12017980C5C26AE53C
:100163005DB4000280DB14F55D12017980B485046F
:100173005D43A808D28E90054CE55D93F58D9005FF
:1001830053E55D93F58B90055AE55D93F57F2290DA
:080193000198232373D2A62278
:03019C00D2C522A7
:0301A000D28422E4
:0301A400D2A722BD
:0301A800D28022E0
:0301AC00D28322D9
:0301B000D28122D7
:0301B400D28222D2
:0301B800D28522CB
:0301BC00D28722C5
:0301C000D29322B5
:0301C400D28622BE
:0301C800D29022B0
:0301CC00D29222AA
:0301D000D29122A7
:0C01D400D296229001DD232373C2A622E4
:0301E100C2C52272
:0301E500C28422AF
:0301E900C2A72288
:0301ED00C28022AB
:0301F100C28322A4
:0301F500C28122A2
:0301F900C282229D
:0301FD00C2852296
:03020100C287228F
:03020500C293227F
:03020900C2862288
:03020D00C290227A
:03021100C2922274
:03021500C2912271
:0C021900C29622900222232373C2A4226A
:03022600C2A02251
:03022A00C2C42229
:03022E00C2A12248
:03023200C2942251
:03023600C2A2223F
:03023A00C2C1221C
:0C023E00C29522900247232373D2A42211
:03024B00D2A0221C
:03024F00D2C422F4
:03025300D2A12213
:03025700D294221C
:03025B00D2A2220A
:03025F00D2C122E7
:10026300D29522D2A4D2A0D2C4D2A1D294D2A2D265
:10027300C1D29522C2A6C2C5C284C2A7C280C2830C
:10028300C281C282C285C287C293C286C290C29211
:0B029300C291C2962290029E232373AA
:03029E00D2C122A8
:0302A200D2A422C1
:0302A600D2A122C0
:0302AA00D2A022BD
:0302AE00D2C42295
:0302B200D2A222B3
:0302B600D29422BD
:0902BA00D295229002C3232373A4
:0302C300C2C12293
:0302C700C2A422AC
:0302CB00C2A122AB
:0302CF00C2A022A8
:0302D300C2C42280
:0302D700C2A2229E
:0302DB00C29422A8
:1002DF00C29522C2C1C2A4C2A1C2A0C2C4C2A2C23C
:1002EF0094C29522D2A3D2A5D2C222900300232377
:0102FF00738B
:03030000C2A32273
:03030400C2A5226D
:10030800C2C222E420B702D2E020B202D2E120B673
:1003180002D2E220B302D2E320B002D2E4F845666A
:100328004565456445638565668564658563648858
:1003380063F8E52EF458422DE8F52E522D22C07DA3
:10034800C07E22D07ED07D225177714B756701D552
:100358006705B27875670A1202F31202E2E4FF1227
:1003680002FA747A307902745E2FF88606E4FDEE9C
:1003780013FE5004ED12029812034BED1202BDED6C
:1003880004B408EA1202F3EF04B403D2120266E4DA
:10039800FDB5680330781E120192ED246AF8E65420
:1003A80007B4000512034B800C14FE12021C120342
:1003B8004BEE120241ED1201D7ED04B410D2C295F2
:1003C800E569540FFD12019212034BED1201D7D2C9
:1003D80095020357756100800AE569B4000280F44C
:1003E800D5621B900407A861E893F56208E893F5C5
:1003F8007A08E893F57B08E893F57C088861220879
:100408003F1C3F08401C40083F1C3F746A2569F8A0
:10041800E65407B400028006142430F88008C28C21
:10042800538FFED2B52290044CE893F58C9004CCFF
:10043800E893F58A438F01B82B04438E802250FA43
:10044800538E7F2202101E2A36414C5660697179FC
:1004580081888F959BA0A6ABB0B4B8BCC0C4C7CAEE
:10046800CDD0D3D5D8DADCDEE0E2E3E5E6E8E90290
:10047800101D2A36414C566068717981888E959B8B
:10048800A0A6ABB0B4B8BCC0C4C7CACDD0D3D5D869
:10049800DADCDEE0E2E3E5E6E8E9EAECEDEEEFF0EF
:1004A800F1F1F2F3F4F4F5F6F6F7F7F8F8F8F9F9EC
:1004B800FAFAFAFBFBFBFBFCFCFCFCFCFDFDFDFD7A
:1004C800FDFDFDFE559202B1AAF7A1B2332BA2A001
:1004D8002A49015855FB51591995D1D0952480AC1A
:1004E800AA7E28AD0D4B69684B12C056D53F940BB8
:1004F8004CC07370C06D8105FF79790626E03A38E3
:10050800E037410280BCBC8313709D9C701BA00126
:10051800405E5E410AB84ECE388ED001202F2F2182
:1005280005DCA7671CC768009018981082EE54B3C2
:100538000E63B400488CCC084177AADA07325A8097
:10054800A4C6E60414083248327614959002E502EF
:10055800AC9507040403020201004F0000000606E0
:0E0568005BCF667D7F5B663F4F3F3F3F3F3F6F
:00000001FF
