:0300000002007784
:10001B00D57F1DC0E0C000C082C083757F07E56936
:10002B0004540FF5691202E2D083D082D000D0E0E5
:01003B003292
:10006300C0E0C000C082C083120262D083D082D0BD
:1000730000D0E03275817F85148D85958B43A80868
:10008300D28E757F07754F017594FF7592FF759634
:10009300FF75B4FF12026C75D6FE75D700438E1040
:1000A30043AF04757A3F757B1C757C3F756A017598
:1000B3006B02756C03756D04756E05756F0675704F
:1000C3000775710075720175730275740375750494
:1000D3007576057577067578077579007569001269
:0F00E30002E2D2AF80FE9000EF232373D2A62259
:0300F300D2C52251
:0300F700D284228E
:0300FB00D2A72267
:0300FF00D280228A
:03010300D2832282
:03010700D2812280
:03010B00D282227B
:03010F00D2852274
:03011300D287226E
:03011700D293225E
:03011B00D2862267
:03011F00D2902259
:03012300D2922253
:03012700D2912250
:0C012B00D29622900134232373C2A62236
:03013800C2C5221B
:03013C00C2842258
:03014000C2A72231
:03014400C2802254
:03014800C283224D
:03014C00C281224B
:03015000C2822246
:03015400C285223F
:03015800C2872239
:03015C00C2932229
:03016000C2862232
:03016400C2902224
:03016800C292221E
:03016C00C291221B
:0C017000C29622900179232373C2A422BE
:03017D00C2A022FB
:03018100C2C422D3
:03018500C2A122F2
:03018900C29422FB
:03018D00C2A222E9
:03019100C2C122C6
:0C019500C2952290019E232373D2A42265
:0301A200D2A022C6
:0301A600D2C4229E
:0301AA00D2A122BD
:0301AE00D29422C6
:0301B200D2A222B4
:0301B600D2C12291
:1001BA00D29522D2A4D2A0D2C4D2A1D294D2A2D20F
:1001CA00C1D29522C2A6C2C5C284C2A7C280C283B6
:1001DA00C281C282C285C287C293C286C290C292BB
:0B01EA00C291C296229001F5232373FE
:0301F500D2C12252
:0301F900D2A4226B
:0301FD00D2A1226A
:03020100D2A02266
:03020500D2C4223E
:03020900D2A2225C
:03020D00D2942266
:09021100D2952290021A232373F6
:03021A00C2C1223C
:03021E00C2A42255
:03022200C2A12254
:03022600C2A02251
:03022A00C2C42229
:03022E00C2A22247
:03023200C2942251
:10023600C29522C2C1C2A4C2A1C2A0C2C4C2A2C2E5
:1002460094C29522D2A3D2A5D2C2229002572323CA
:010256007334
:03025700C2A3221D
:03025B00C2A52217
:10025F00C2C222C07DC07E22D07ED07D2231CE513F
:10026F006712024A120239E4FF120251747A2FF810
:10027F008606E4FDEE13FE5004ED1201EF12026745
:10028F00ED120214ED04B408EA12024AEF04B403AB
:10029F00D71201BDE4FD1200E9ED246AF8E6540718
:1002AF00B40005120267800C14FE1201731202676C
:1002BF00EE120198ED12012EED04B410D8C295E59F
:1002CF0069540FFD1200E9120267ED12012ED2954B
:1002DF00120270746A2569F8E65407B400028006AA
:1002EF00142424F88008C28C538FFED2B5229003B9
:1002FF001DE893F58C90039DE893F58A438F01D207
:10030F008CB82B04438E802250FA538E7F2202101A
:10031F001E2A36414C566069717981888F959BA052
:10032F00A6ABB0B4B8BCC0C4C7CACDD0D3D5D8DA89
:10033F00DCDEE0E2E3E5E6E8E902101D2A36414C97
:10034F00566068717981888E959BA0A6ABB0B4B8C2
:10035F00BCC0C4C7CACDD0D3D5D8DADCDEE0E2E367
:10036F00E5E6E8E9EAECEDEEEFF0F1F1F2F3F4F4A3
:10037F00F5F6F6F7F7F8F8F8F9F9FAFAFAFBFBFBE6
:10038F00FBFCFCFCFCFCFDFDFDFDFDFDFDFE5592A7
:10039F0002B1AAF7A1B2332BA2A02A49015855FBEB
:1003AF0051591995D1D0952480ACAA7E28AD0D4B0B
:1003BF0069684B12C056D53F940B4CC07370C06D1B
:1003CF008105FF79790626E03A38E037410280BC93
:1003DF00BC8313709D9C701BA001405E5E410AB8E8
:1003EF004ECE388ED001202F2F2105DCA7671CC7DA
:1003FF0068009018981082EE54B30E63B400488CC6
:10040F00CC084177AADA07325A80A4C6E604143220
:10041F00483276149502E502AC95070403020201F7
:00000001FF
