:0300000002007D7E
:10001B00D57F20C0E0C000C082C083120213E56907
:10002B0004540FF5691204891204FBD083D082D0DB
:04003B0000D0E032DF
:10006300C0E0C000C082C0831203D0120395120403
:1000730066D083D082D000D0E03275817F1201FB3D
:100083007594FF7592FF7596FF75B4FF1203DA75C9
:10009300D6FE75D700438E1043AF04120479755C06
:1000A3002CC27A756A01756B02756C03756D0475E4
:1000B3006E05756F0675700775710075720175733E
:1000C300027574037575047576057577067578077B
:1000D3007579007569007568021204FBD2AF800060
:1000E30053680FC279C26820690E206A16206B1EFE
:1000F300206C2920683480EFC269E56814540FF539
:100103006880DDC26AE56804540FF56880D2C26B6B
:10011300E568246AF8E6045407F680C4C26CE5680F
:10012300246AF8E6145407F680B6C268D2794368A5
:1001330010E55C75F00C84E5F090064093F55E7570
:100143005F00756000307A06755F54756044D27B3A
:1001530020693B206A22C27B206C08206B12206836
:100163004F80EBC26CE55CC3940740E2F55C80BA58
:10017300C26BE55C24078021C26AE55CC39403403B
:10018300CD307A04940640C6F55CB27A809CC2698D
:10019300E55C2403207A022406F8207A05C39474CC
:1001A3008002947550A8885C307B02B27A02012DDC
:1001B300C2689006B7E55D93F55E9006D6E55D935C
:1001C300F55F9006F5E55D93F560206909206A17F0
:1001D3003068F70200E3C269E55DB41E0280EB04F8
:1001E300F55D12020380C9C26AE55DB4000280DADC
:1001F30014F55D12020380B8755D0943A808D28E19
:1002030090065AE55D93F58D900679E55D93F58B40
:10021300900698E55D93F57F22900222232373D203
:02022300A62211
:03022600D2C5221C
:03022A00D2842259
:03022E00D2A72232
:03023200D2802255
:03023600D283224E
:03023A00D281224C
:03023E00D2822247
:03024200D2852240
:03024600D287223A
:03024A00D293222A
:03024E00D2862233
:03025200D2902225
:03025600D292221F
:03025A00D291221C
:0C025E00D29622900267232373C2A622CE
:03026B00C2C522E7
:03026F00C2842224
:03027300C2A722FD
:03027700C2802220
:03027B00C2832219
:03027F00C2812217
:03028300C2822212
:03028700C285220B
:03028B00C2872205
:03028F00C29322F5
:03029300C28622FE
:03029700C29022F0
:03029B00C29222EA
:03029F00C29122E7
:0C02A300C296229002AC232373C2A42256
:0302B000C2A022C7
:0302B400C2C4229F
:0302B800C2A122BE
:0302BC00C29422C7
:0302C000C2A222B5
:0302C400C2C12292
:0C02C800C295229002D1232373D2A422FD
:0302D500D2A02292
:0302D900D2C4226A
:0302DD00D2A12289
:0302E100D2942292
:0302E500D2A22280
:0302E900D2C1225D
:1002ED00D29522D2A4D2A0D2C4D2A1D294D2A2D2DB
:1002FD00C1D29522C2A6C2C5C284C2A7C280C28382
:10030D00C281C282C285C287C293C286C290C29286
:0B031D00C291C2962290032823237394
:03032800D2C1221D
:03032C00D2A42236
:03033000D2A12235
:03033400D2A02232
:03033800D2C4220A
:03033C00D2A22228
:03034000D2942232
:09034400D2952290034D2323738E
:03034D00C2C12208
:03035100C2A42221
:03035500C2A12220
:03035900C2A0221D
:03035D00C2C422F5
:03036100C2A22213
:03036500C294221D
:10036900C29522C2C1C2A4C2A1C2A0C2C4C2A2C2B1
:1003790094C29522D2A3D2A5D2C22290038A232362
:010389007300
:03038A00C2A322E9
:03038E00C2A522E3
:10039200C2C222E420B702D2E020B202D2E120B6E9
:1003A20002D2E220B302D2E320B002D2E4F84566E0
:1003B20045654564456385656685646585636488CE
:1003C20063F8E52EF458422DE8F52E522D22C07D19
:1003D200C07E22D07ED07D22710171D5756701D594
:1003E2006705B27875670A12037D12036CE4FF1287
:1003F2000384747A307902745E2FF88606E4FDEE87
:1004020013FE5004ED1203221203D5ED120347ED41
:1004120004B408EA12037DEF04B403D21202F0E43A
:10042200FDB5680330781E12021CED246AF8E6540A
:1004320007B400051203D5800C14FE1202A61203A3
:10044200D5EE1202CBED120261ED04B410D2C295C8
:10045200E569540FFD12021C1203D5ED120261D29E
:10046200950203E1E55B75F011A4246F252E75F06A
:10047200FF84E5F0F55B22120466030303540F9038
:1004820004AF93F561800AE569B4000280E9D562A0
:100492001B9004BFA861E893F56208E893F57A0817
:1004A200E893F57B08E893F57C0888612200000850
:1004B2002C002C00000000000000000000083F1C7F
:1004C2003F08401C40033E1C3E02181C3E011C3EDD
:1004D20000013E0000020000000100003E01003E5B
:1004E2001C023E1C0C033E1C3E073F1C3F01231C0A
:1004F200230723082301231C23746A2569F8E65481
:1005020007B4000280101490064C307A0390065310
:1005120093255CF88008C28C538FFED2B5229005D9
:1005220040E893F58C9005C0E893F58A438F01D299
:100532008CB82B04438E802250FA538E7F220210F5
:100542001E2A36414C566069717981888F959BA02D
:10055200A6ABB0B4B8BCC0C4C7CACDD0D3D5D8DA64
:10056200DCDEE0E2E3E5E6E8E902101D2A36414C72
:10057200566068717981888E959BA0A6ABB0B4B89D
:10058200BCC0C4C7CACDD0D3D5D8DADCDEE0E2E342
:10059200E5E6E8E9EAECEDEEEFF0F1F1F2F3F4F47E
:1005A200F5F6F6F7F7F8F8F8F9F9FAFAFAFBFBFBC1
:1005B200FBFCFCFCFCFCFDFDFDFDFDFDFDFE559282
:1005C20002B1AAF7A1B2332BA2A02A49015855FBC6
:1005D20051591995D1D0952480ACAA7E28AD0D4BE6
:1005E20069684B12C056D53F940B4CC07370C06DF6
:1005F2008105FF79790626E03A38E037410280BC6E
:10060200BC8313709D9C701BA001405E5E410AB8C2
:100612004ECE388ED001202F2F2105DCA7671CC7B4
:1006220068009018981082EE54B30E63B400488CA0
:10063200CC084177AADA07325A80A4C6E604B95E2A
:10064200DE7971F13DBD77F77C39000204050709B7
:100652000B0002030507080A0208020E0B142414F9
:10066200320B243848021432485B636A767F0224D4
:100672003A3E485F6A707C7990798BDC95469502A8
:10068200DC4640E5799502E5350E30AC4279460DFF
:1006920020E53A30B4091A100D0D090705040403C8
:1006A2000303030202020202020202020101010129
:1006B2000101010101004F00000000060606065B71
:1006C2005B5B5B5B4F4F666666666D6D7D7D7D072E
:1006D2007F7F6F6F5BCF66667D7F5B667D7F3F5BF3
:1006E200667D7F5B7D3F5B667F065B3F7D7F5B5BFD
:1006F2007F5B6F3F4F3F5B3F3F3F3F3F3F3F3F3F50
:100702003F3F3F3F3F3F3F3F5B3F3F7D3F3F3F3F9D
:020712003F6F37
:00000001FF
