:0300000002008576
:03001B000200647C
:1000630032D57F1DC0E0C000C082C083757F070505
:100073006F536F7FA86F120131D083D082D000D02D
:10008300E03275817FD28C438F0178001201318574
:10009300148D85958B43A808D28E757F07756F01E4
:0D00A300D2AF80FE9000AD232373D2A622C1
:0300B100D2C52293
:0300B500D28422D0
:0300B900D2A722A9
:0300BD00D28022CC
:0300C100D28322C5
:0300C500D28122C3
:0300C900D28222BE
:0300CD00D28522B7
:0300D100D28722B1
:0300D500D29322A1
:0300D900D28622AA
:0300DD00D290229C
:0300E100D2922296
:0300E500D2912293
:0C00E900D2B6229000F2232373C2A6229C
:0300F600C2C5225E
:0300FA00C284229B
:0300FE00C2A72274
:03010200C2802296
:03010600C283228F
:03010A00C281228D
:03010E00C2822288
:03011200C2852281
:03011600C287227B
:03011A00C293226B
:03011E00C2862274
:03012200C2902266
:03012600C2922260
:03012A00C291225D
:10012E00C2B62290014EE893F58C9001CEE893F57D
:10013E008AD28CB82B04438E802250FA538E7F22A3
:10014E0002101E2A36414C566069717981888F954E
:10015E009BA0A6ABB0B4B8BCC0C4C7CACDD0D3D5D3
:10016E00D8DADCDEE0E2E3E5E6E8E902101D2A3645
:10017E00414C566068717981888E959BA0A6ABB074
:10018E00B4B8BCC0C4C7CACDD0D3D5D8DADCDEE093
:10019E00E2E3E5E6E8E9EAECEDEEEFF0F1F1F2F399
:1001AE00F4F4F5F6F6F7F7F8F8F8F9F9FAFAFAFBC7
:1001BE00FBFBFBFCFCFCFCFCFDFDFDFDFDFDFDFE6B
:1001CE00559202B1AAF7A1B2332BA2A02A49015827
:1001DE0055FB51591995D1D0952480ACAA7E28ADE6
:1001EE000D4B69684B12C056D53F940B4CC07370C3
:1001FE00C06D8105FF79790626E03A38E037410275
:10020E0080BCBC8313709D9C701BA001405E5E4140
:10021E000AB84ECE388ED001202F2F2105DCA767CD
:10022E001CC768009018981082EE54B30E63B40089
:10023E00488CCC084177AADA07325A80A4C6E60465
:10024E001432483276149502E502AC950704030287
:02025E0002019B
:00000001FF
