:0300000002007A81
:10001B00D57F20C0E0C000C082C083757F07E56933
:10002B0004540FF5691203701203A2D083D082D04F
:04003B0000D0E032DF
:10006300C0E0C000C082C0831202DA12029FD083B4
:10007300D082D000D0E03275817F85148D85958B39
:1000830043A808D28E757F077594FF7592FF759606
:10009300FF75B4FF1202E475D6FE75D700438E10C8
:1000A30043AF0412036B756A01756B02756C0375BC
:1000B3006D04756E05756F06757007757100757241
:1000C3000175730275740375750475760575770686
:1000D3007578077579007569007568021203A2D2F5
:1000E300AF800020690B206A13206B1B206C2680D5
:1000F300F2C269E56814540FF56880E7C26AE568DF
:1001030004540FF56880DCC26BE568246AF8E604E2
:100113005407F680CEC26CE568246AF8E6145407E7
:0C012300F680C090012C232373D2A6228A
:03013000D2C52213
:03013400D2842250
:03013800D2A72229
:03013C00D280224C
:03014000D2832245
:03014400D2812243
:03014800D282223E
:03014C00D2852237
:03015000D2872231
:03015400D2932221
:03015800D286222A
:03015C00D290221C
:03016000D2922216
:03016400D2912213
:0C016800D29622900171232373C2A622BC
:03017500C2C522DE
:03017900C284221B
:03017D00C2A722F4
:03018100C2802217
:03018500C2832210
:03018900C281220E
:03018D00C2822209
:03019100C2852202
:03019500C28722FC
:03019900C29322EC
:03019D00C28622F5
:0301A100C29022E7
:0301A500C29222E1
:0301A900C29122DE
:0C01AD00C296229001B6232373C2A42244
:0301BA00C2A022BE
:0301BE00C2C42296
:0301C200C2A122B5
:0301C600C29422BE
:0301CA00C2A222AC
:0301CE00C2C12289
:0C01D200C295229001DB232373D2A422EB
:0301DF00D2A02289
:0301E300D2C42261
:0301E700D2A12280
:0301EB00D2942289
:0301EF00D2A22277
:0301F300D2C12254
:1001F700D29522D2A4D2A0D2C4D2A1D294D2A2D2D2
:10020700C1D29522C2A6C2C5C284C2A7C280C28378
:10021700C281C282C285C287C293C286C290C2927D
:0B022700C291C2962290023223237382
:03023200D2C12214
:03023600D2A4222D
:03023A00D2A1222C
:03023E00D2A02229
:03024200D2C42201
:03024600D2A2221F
:03024A00D2942229
:09024E00D295229002572323737C
:03025700C2C122FF
:03025B00C2A42218
:03025F00C2A12217
:03026300C2A02214
:03026700C2C422EC
:03026B00C2A2220A
:03026F00C2942214
:10027300C29522C2C1C2A4C2A1C2A0C2C4C2A2C2A8
:1002830094C29522D2A3D2A5D2C222900294232350
:0102930073F7
:03029400C2A322E0
:03029800C2A522DA
:10029C00C2C222E430B702D2E020B202D2E120B6D0
:1002AC0002D2E220B302D2E320B002D2E4F84566D7
:1002BC0045654564456385656685646585636488C5
:1002CC0063F8E52EF458422DE8F52E522D22C07D10
:1002DC00C07E22D07ED07D22510B51DF756701D5B7
:1002EC006705B27875670A120287120276E4FF126C
:1002FC00028E747A2FF88606E4FDEE13FE5004EDA0
:10030C0012022C1202DFED120251ED04B408EA12B3
:10031C000287EF04B403D71201FAE4FDB568033089
:10032C00781E120126ED246AF8E65407B400051273
:10033C0002DF800C14FE1201B01202DFEE1201D5A6
:10034C00ED12016BED04B410D2C295E569540FFDAA
:10035C001201261202DFED12016BD2950202EB752F
:10036C006100800AE569B4000280F4D5621B900339
:10037C0096A861E893F56208E893F57A08E893F596
:10038C007B08E893F57C08886122083F1C3F0140FC
:10039C001C40083F1C3F746A2569F8E65407B400FA
:1003AC00028006142430F88008C28C538FFED2B51C
:1003BC00229003DBE893F58C90045BE893F58A4379
:1003CC008F01B82B04438E802250FA538E7F220269
:1003DC00101E2A36414C566069717981888F959B25
:1003EC00A0A6ABB0B4B8BCC0C4C7CACDD0D3D5D806
:1003FC00DADCDEE0E2E3E5E6E8E902101D2A36414C
:10040C004C566068717981888E959BA0A6ABB0B470
:10041C00B8BCC0C4C7CACDD0D3D5D8DADCDEE0E2D4
:10042C00E3E5E6E8E9EAECEDEEEFF0F1F1F2F3F4F6
:10043C00F4F5F6F6F7F7F8F8F8F9F9FAFAFAFBFB2F
:10044C00FBFBFCFCFCFCFCFDFDFDFDFDFDFDFE5580
:10045C009202B1AAF7A1B2332BA2A02A4901585596
:10046C00FB51591995D1D0952480ACAA7E28AD0D9D
:10047C004B69684B12C056D53F940B4CC07370C07F
:10048C006D8105FF79790626E03A38E03741028024
:10049C00BCBC8313709D9C701BA001405E5E410A26
:1004AC00B84ECE388ED001202F2F2105DCA7671C2B
:1004BC00C768009018981082EE54B30E63B40048CD
:1004CC008CCC084177AADA07325A80A4C6E6041409
:1004DC0032483276149502E502AC95070403020209
:0104EC00010E
:00000001FF
