:0300000002007A81
:10001B00D57F20C0E0C000C082C083120210E5690A
:10002B0004540FF5691204681204C2D083D082D035
:04003B0000D0E032DF
:10006300C0E0C000C082C0831203CD120392D083CC
:10007300D082D000D0E03275817F1201F87594FFF1
:100083007592FF7596FF75B4FF1203D775D6FE758B
:10009300D700438E1043AF04120463755C2CC27AFD
:1000A300756A01756B02756C03756D04756E057564
:1000B3006F0675700775710075720175730275743B
:1000C3000375750475760575770675780775790078
:1000D3007569007568021204C2D2AF800053680FBD
:1000E300C279C26820690E206A16206B1E206C2913
:1000F30020683480EFC269E56814540FF56880DD29
:10010300C26AE56804540FF56880D2C26BE56824BF
:100113006AF8E6045407F680C4C26CE568246AF8FA
:10012300E6145407F680B6C268D279436810E55CDA
:1001330075F00C84E5F090060793F55E755F007526
:100143006000307A06755F54756044D27B20693B4A
:10015300206A22C27B206C08206B1220684F80EB40
:10016300C26CE55CC3940740E2F55C80BAC26BE500
:100173005C24078021C26AE55CC3940340CD307AD6
:1001830004940640C6F55CB27A809CC269E55C249F
:1001930003207A022406F8207A05C394748002941B
:1001A3007550A8885C307B02B27A02012AC268903B
:1001B300067EE55D93F55E90069DE55D93F55F90A4
:1001C30006BCE55D93F560206909206A173068F77E
:1001D3000200E0C269E55DB41E0280EB04F55D1226
:1001E300020080C9C26AE55DB4000280DA14F55DDD
:1001F30012020080B885055D43A808D28E900621BF
:10020300E55D93F58D900640E55D93F58B90065F74
:0F021300E55D93F57F2290021F232373D2A6226D
:03022300D2C5221F
:03022700D284225C
:03022B00D2A72235
:03022F00D2802258
:03023300D2832251
:03023700D281224F
:03023B00D282224A
:03023F00D2852243
:03024300D287223D
:03024700D293222D
:03024B00D2862236
:03024F00D2902228
:03025300D2922222
:03025700D291221F
:0C025B00D29622900264232373C2A622D4
:03026800C2C522EA
:03026C00C2842227
:03027000C2A72200
:03027400C2802223
:03027800C283221C
:03027C00C281221A
:03028000C2822215
:03028400C285220E
:03028800C2872208
:03028C00C29322F8
:03029000C2862201
:03029400C29022F3
:03029800C29222ED
:03029C00C29122EA
:0C02A000C296229002A9232373C2A4225C
:0302AD00C2A022CA
:0302B100C2C422A2
:0302B500C2A122C1
:0302B900C29422CA
:0302BD00C2A222B8
:0302C100C2C12295
:0C02C500C295229002CE232373D2A42203
:0302D200D2A02295
:0302D600D2C4226D
:0302DA00D2A1228C
:0302DE00D2942295
:0302E200D2A22283
:0302E600D2C12260
:1002EA00D29522D2A4D2A0D2C4D2A1D294D2A2D2DE
:1002FA00C1D29522C2A6C2C5C284C2A7C280C28385
:10030A00C281C282C285C287C293C286C290C29289
:0B031A00C291C296229003252323739A
:03032500D2C12220
:03032900D2A42239
:03032D00D2A12238
:03033100D2A02235
:03033500D2C4220D
:03033900D2A2222B
:03033D00D2942235
:09034100D2952290034A23237394
:03034A00C2C1220B
:03034E00C2A42224
:03035200C2A12223
:03035600C2A02220
:03035A00C2C422F8
:03035E00C2A22216
:03036200C2942220
:10036600C29522C2C1C2A4C2A1C2A0C2C4C2A2C2B4
:1003760094C29522D2A3D2A5D2C222900387232368
:010386007303
:03038700C2A322EC
:03038B00C2A522E6
:10038F00C2C222E420B702D2E020B202D2E120B6EC
:10039F0002D2E220B302D2E320B002D2E4F84566E3
:1003AF0045654564456385656685646585636488D1
:1003BF0063F8E52EF458422DE8F52E522D22C07D1C
:1003CF00C07E22D07ED07D2251FE71D2756701D5BD
:1003DF006705B27875670A12037A120369E4FF1290
:1003EF000381747A307902745E2FF88606E4FDEE8D
:1003FF0013FE5004ED12031F1203D2ED120344ED4E
:10040F0004B408EA12037AEF04B403D21202EDE443
:10041F00FDB5680330781E120219ED246AF8E65410
:10042F0007B400051203D2800C14FE1202A31203AC
:10043F00D2EE1202C8ED12025EED04B410D2C295D4
:10044F00E569540FFD1202191203D2ED12025ED2AA
:10045F00950203DE756108800AE569B4000280F435
:10046F00D5621B90048EA861E893F56208E893F5B6
:10047F007A08E893F57B08E893F57C0888612208F1
:10048F003F1C3F08401C40033E1C3E02181C3E010F
:10049F001C3E00013E0000020000000100003E0172
:1004AF00003E1C023E1C0C033E1C3E083F1C3F0836
:1004BF00230823746A2569F8E65407B400028010F4
:1004CF0014900613307A0390061A93255CF880086F
:1004DF00C28C538FFED2B522900507E893F58C900E
:1004EF000587E893F58A438F01D28CB82B04438E8E
:1004FF00802250FA538E7F2202101E2A36414C560C
:10050F006069717981888F959BA0A6ABB0B4B8BC98
:10051F00C0C4C7CACDD0D3D5D8DADCDEE0E2E3E57C
:10052F00E6E8E902101D2A36414C56606871798160
:10053F00888E959BA0A6ABB0B4B8BCC0C4C7CACDBB
:10054F00D0D3D5D8DADCDEE0E2E3E5E6E8E9EAECA1
:10055F00EDEEEFF0F1F1F2F3F4F4F5F6F6F7F7F85C
:10056F00F8F8F9F9FAFAFAFBFBFBFBFCFCFCFCFCD4
:10057F00FDFDFDFDFDFDFDFE559202B1AAF7A1B2F5
:10058F00332BA2A02A49015855FB51591995D1D0A7
:10059F00952480ACAA7E28AD0D4B69684B12C056CE
:1005AF00D53F940B4CC07370C06D8105FF797906F0
:1005BF0026E03A38E037410280BCBC8313709D9C23
:1005CF00701BA001405E5E410AB84ECE388ED0013E
:1005DF00202F2F2105DCA7671CC7680090189810E3
:1005EF0082EE54B30E63B400488CCC084177AADA7C
:1005FF0007325A80A4C6E604B95EDE7971F13DBDBB
:10060F0077F77C390002040507090B000203050781
:10061F00080A0208020E0B142414320B2438480265
:10062F001432485B636A767F02243A3E485F6A70F1
:10063F007C7990798BDC95469502DC4640E579957F
:10064F0002E5350E30AC4279460D20E53A30B4095B
:10065F001A100D0D09070504040303030302020218
:10066F000202020202020101010101010101010066
:10067F004F00000000060606065B5B5B5B5B4F4F9F
:10068F00666666666D6D7D7D7D077F7F6F6F5BCF65
:10069F0066667D7F5B667D7F3F5B667D7F5B7D3FB3
:1006AF005B667F065B3F7D7F5B5B7F5B6F3F4F3F93
:1006BF005B3F3F3F3F3F3F3F3F3F3F3F3F3F3F3F1F
:0C06CF003F3F5B3F3F7D3F3F3F3F3F6FA1
:00000001FF
