:0300000002007784
:10001B00D57F1DC0E0C000C082C083757F07056F10
:10002B00536F7FA86F12020ED083D082D000D0E026
:01003B003292
:10006300C0E0C000C082C0831201D8D083D082D048
:1000730000D0E03275817F12020685148D85958B41
:1000830043A808D28E757F07756F017594FF75922B
:10009300FF7596FF75B4FF1201E275D60075D700A0
:1000A300438E1043AF04D2AF80FE9000B32323737B
:0300B300D2A622B0
:0300B700D2C5228D
:0300BB00D28422CA
:0300BF00D2A722A3
:0300C300D28022C6
:0300C700D28322BF
:0300CB00D28122BD
:0300CF00D28222B8
:0300D300D28522B1
:0300D700D28722AB
:0300DB00D293229B
:0300DF00D28622A4
:0300E300D2902296
:0300E700D2922290
:0300EB00D291228D
:0C00EF00D296229000F8232373C2A622B0
:0300FC00C2C52258
:03010000C2842294
:03010400C2A7226D
:03010800C2802290
:03010C00C2832289
:03011000C2812287
:03011400C2822282
:03011800C285227B
:03011C00C2872275
:03012000C2932265
:03012400C286226E
:03012800C2902260
:03012C00C292225A
:03013000C2912257
:0C013400C2962290013D232373C2952245
:03014100C2C12216
:03014500C2A22231
:03014900C294223B
:03014D00C2A1222A
:03015100C2C42203
:03015500C2A02223
:0C015900C2A422900162232373D29522DD
:03016600D2C122E1
:03016A00D2A222FC
:03016E00D2942206
:03017200D2A122F5
:03017600D2C422CE
:03017A00D2A022EE
:10017E00D2A422D295D2C1D2A2D294D2A1D2C4D22A
:10018E00A0D2A422C2A6C2C5C284C2A7C280C28304
:10019E00C281C282C285C287C293C286C290C292F7
:0B01AE00C291C296229001B923237376
:0301B900D2C1228E
:0301BD00D2A422A7
:0301C100D2A122A6
:0301C500D2A022A3
:0301C900D2C4227B
:0301CD00D2A22299
:0301D100D29422A3
:1001D500D29522C07DC07E22D07ED07D2231923143
:1001E500DD31817C081CEC231200ADEC12013712C5
:1001F50001DDEC231200F2EC12015CBC00E7020108
:10020500E6C28C538FFED2B52290022CE893F58C72
:100215009002ACE893F58A438F01B82B04438E8096
:100225002250FA538E7F2202101E2A36414C566008
:1002350069717981888F959BA0A6ABB0B4B8BCC015
:10024500C4C7CACDD0D3D5D8DADCDEE0E2E3E5E633
:10025500E8E902101D2A36414C566068717981889B
:100265008E959BA0A6ABB0B4B8BCC0C4C7CACDD050
:10027500D3D5D8DADCDEE0E2E3E5E6E8E9EAECED61
:10028500EEEFF0F1F1F2F3F4F4F5F6F6F7F7F8F82E
:10029500F8F9F9FAFAFAFBFBFBFBFCFCFCFCFCFDAC
:1002A500FDFDFDFDFDFDFE559202B1AAF7A1B2339C
:1002B5002BA2A02A49015855FB51591995D1D09522
:1002C5002480ACAA7E28AD0D4B69684B12C056D56B
:1002D5003F940B4CC07370C06D8105FF797906267C
:1002E500E03A38E037410280BCBC8313709D9C70B6
:1002F5001BA001405E5E410AB84ECE388ED001206B
:100305002F2F2105DCA7671CC7680090189810825D
:10031500EE54B30E63B400488CCC084177AADA07D3
:10032500325A80A4C6E6041432483276149502E5A2
:0903350002AC9507040302020169
:00000001FF
