:0300000002007784
:10001B00D57F1DC0E0C000C082C083757F07056F10
:10002B00536F7FA86F1202A2D083D082D000D0E092
:01003B003292
:10006300C0E0C000C082C08312022FD083D082D0F0
:1000730000D0E03275817F12029A85148D85958BAD
:1000830043A808D28E757F07756F017594FF75922B
:10009300FF7596FF75B4FF12023975D6FB75D7004D
:1000A300438E1043AF04757A3F757B1C757C3FD23A
:0C00B300AF80FE9000BC232373D2A62275
:0300C000D2C52284
:0300C400D28422C1
:0300C800D2A7229A
:0300CC00D28022BD
:0300D000D28322B6
:0300D400D28122B4
:0300D800D28222AF
:0300DC00D28522A8
:0300E000D28722A2
:0300E400D2932292
:0300E800D286229B
:0300EC00D290228D
:0300F000D2922287
:0300F400D2912284
:0C00F800D29622900101232373C2A6229D
:03010500C2C5224E
:03010900C284228B
:03010D00C2A72264
:03011100C2802287
:03011500C2832280
:03011900C281227E
:03011D00C2822279
:03012100C2852272
:03012500C287226C
:03012900C293225C
:03012D00C2862265
:03013100C2902257
:03013500C2922251
:03013900C291224E
:0C013D00C29622900146232373C2952233
:03014A00C2C1220D
:03014E00C2A22228
:03015200C2942232
:03015600C2A12221
:03015A00C2C422FA
:03015E00C2A0221A
:0C016200C2A42290016B232373D29522CB
:03016F00D2C122D8
:03017300D2A222F3
:03017700D29422FD
:03017B00D2A122EC
:03017F00D2C422C5
:03018300D2A022E5
:10018700D2A422D295D2C1D2A2D294D2A1D2C4D221
:10019700A0D2A422C2A6C2C5C284C2A7C280C283FB
:1001A700C281C282C285C287C293C286C290C292EE
:0B01B700C291C296229001C223237364
:0301C200D2C12285
:0301C600D2A4229E
:0301CA00D2A1229D
:0301CE00D2A0229A
:0301D200D2C42272
:0301D600D2A22290
:0301DA00D294229A
:0901DE00D295229001E72323735E
:0301E700C2C12270
:0301EB00C2A42289
:0301EF00C2A12288
:0301F300C2A02285
:0301F700C2C4225D
:0301FB00C2A2227B
:0301FF00C2942285
:10020300C29522C2C1C2A4C2A1C2A0C2C4C2A2C218
:1002130094C29522D2A3D2A5D2C222900224232330
:010223007367
:03022400C2A32250
:03022800C2A5224A
:10022C00C2C222C07DC07E22D07ED07D22319B51A5
:10023C0034120217120206757900E57912021E7447
:10024C007A2579F88678757700E57813F578500576
:10025C00E5771201BC120234E5771201E10577E56E
:10026C0077B408E51202170579E579B403CC318A25
:10027C007C081CEC231200B6EC120140120234EC88
:10028C00231200FBEC120165BC00E702023DC28C9C
:10029C00538FFED2B5229002C0E893F58C900340A8
:1002AC00E893F58A438F01B82B04438E802250FAD1
:1002BC00538E7F2202101E2A36414C56606971798A
:1002CC0081888F959BA0A6ABB0B4B8BCC0C4C7CA7C
:1002DC00CDD0D3D5D8DADCDEE0E2E3E5E6E8E9021E
:1002EC00101D2A36414C566068717981888E959B19
:1002FC00A0A6ABB0B4B8BCC0C4C7CACDD0D3D5D8F7
:10030C00DADCDEE0E2E3E5E6E8E9EAECEDEEEFF07C
:10031C00F1F1F2F3F4F4F5F6F6F7F7F8F8F8F9F979
:10032C00FAFAFAFBFBFBFBFCFCFCFCFCFDFDFDFD07
:10033C00FDFDFDFE559202B1AAF7A1B2332BA2A08E
:10034C002A49015855FB51591995D1D0952480ACA7
:10035C00AA7E28AD0D4B69684B12C056D53F940B45
:10036C004CC07370C06D8105FF79790626E03A3870
:10037C00E037410280BCBC8313709D9C701BA001B4
:10038C00405E5E410AB84ECE388ED001202F2F2110
:10039C0005DCA7671CC768009018981082EE54B350
:1003AC000E63B400488CCC084177AADA07325A8025
:1003BC00A4C6E6041432483276149502E502AC95D4
:0603CC0007040302020118
:00000001FF
